{
  "contractName": "VaccineCredential",
  "abi": [
    {
      "inputs": [],
      "stateMutability": "nonpayable",
      "type": "constructor"
    },
    {
      "anonymous": false,
      "inputs": [
        {
          "indexed": false,
          "internalType": "address",
          "name": "_addr",
          "type": "address"
        }
      ],
      "name": "AddIssuer",
      "type": "event"
    },
    {
      "anonymous": false,
      "inputs": [
        {
          "indexed": false,
          "internalType": "address",
          "name": "_addr",
          "type": "address"
        }
      ],
      "name": "DelIssuer",
      "type": "event"
    },
    {
      "anonymous": false,
      "inputs": [
        {
          "indexed": false,
          "internalType": "string",
          "name": "",
          "type": "string"
        }
      ],
      "name": "FaultCredential",
      "type": "event"
    },
    {
      "anonymous": false,
      "inputs": [
        {
          "indexed": false,
          "internalType": "string",
          "name": "",
          "type": "string"
        }
      ],
      "name": "SuccessCredential",
      "type": "event"
    },
    {
      "inputs": [
        {
          "internalType": "address",
          "name": "_addr",
          "type": "address"
        }
      ],
      "name": "addIssuer",
      "outputs": [
        {
          "internalType": "bool",
          "name": "",
          "type": "bool"
        }
      ],
      "stateMutability": "nonpayable",
      "type": "function"
    },
    {
      "inputs": [
        {
          "internalType": "address",
          "name": "_addr",
          "type": "address"
        }
      ],
      "name": "delIssuer",
      "outputs": [
        {
          "internalType": "bool",
          "name": "",
          "type": "bool"
        }
      ],
      "stateMutability": "nonpayable",
      "type": "function"
    },
    {
      "inputs": [
        {
          "internalType": "address",
          "name": "_addr",
          "type": "address"
        }
      ],
      "name": "isIssuer",
      "outputs": [
        {
          "internalType": "bool",
          "name": "",
          "type": "bool"
        }
      ],
      "stateMutability": "view",
      "type": "function",
      "constant": true
    },
    {
      "inputs": [
        {
          "internalType": "address",
          "name": "",
          "type": "address"
        }
      ],
      "name": "issuers",
      "outputs": [
        {
          "internalType": "bool",
          "name": "",
          "type": "bool"
        }
      ],
      "stateMutability": "view",
      "type": "function",
      "constant": true
    },
    {
      "inputs": [
        {
          "internalType": "address",
          "name": "_requester",
          "type": "address"
        },
        {
          "internalType": "uint8",
          "name": "_companyEnum",
          "type": "uint8"
        },
        {
          "internalType": "uint8",
          "name": "_degreeEnum",
          "type": "uint8"
        },
        {
          "internalType": "string",
          "name": "_value",
          "type": "string"
        }
      ],
      "name": "claimCredential",
      "outputs": [
        {
          "internalType": "bool",
          "name": "",
          "type": "bool"
        }
      ],
      "stateMutability": "nonpayable",
      "type": "function"
    },
    {
      "inputs": [
        {
          "internalType": "address",
          "name": "_requester",
          "type": "address"
        }
      ],
      "name": "getCredential",
      "outputs": [
        {
          "components": [
            {
              "internalType": "uint256",
              "name": "id",
              "type": "uint256"
            },
            {
              "internalType": "string",
              "name": "company",
              "type": "string"
            },
            {
              "internalType": "string",
              "name": "degree",
              "type": "string"
            },
            {
              "internalType": "uint256",
              "name": "createdDate",
              "type": "uint256"
            },
            {
              "internalType": "string",
              "name": "value",
              "type": "string"
            }
          ],
          "internalType": "struct VaccineCredential.Credential",
          "name": "credential",
          "type": "tuple"
        }
      ],
      "stateMutability": "view",
      "type": "function",
      "constant": true
    }
  ],
  "bytecode": "0x60806040523480156200001157600080fd5b50336000806101000a81548173ffffffffffffffffffffffffffffffffffffffff021916908373ffffffffffffffffffffffffffffffffffffffff16021790555060018060003373ffffffffffffffffffffffffffffffffffffffff1673ffffffffffffffffffffffffffffffffffffffff16815260200190815260200160002060006101000a81548160ff0219169083151502179055506040518060400160405280600d81526020017ff09fa7aaed9994ec9db4ec9e9000000000000000000000000000000000000000815250600260008060ff16815260200190815260200160002090805190602001906200010a92919062000300565b506040518060400160405280600d81526020017ff09fa7aaebaaa8eb8d94eb82980000000000000000000000000000000000000081525060026000600160ff16815260200190815260200160002090805190602001906200016d92919062000300565b506040518060400160405280600681526020017ff09fa7aa415a000000000000000000000000000000000000000000000000000081525060026000600260ff1681526020019081526020016000209080519060200190620001d092919062000300565b506040518060400160405280601881526020017f31efb88fe283a3ecb0a820eca091eca28520ec9984eba38c000000000000000081525060036000600160ff16815260200190815260200160002090805190602001906200023392919062000300565b506040518060400160405280601881526020017f32efb88fe283a3ecb0a820eca091eca28520ec9984eba38c000000000000000081525060036000600260ff16815260200190815260200160002090805190602001906200029692919062000300565b506040518060400160405280601881526020017f33efb88fe283a3ecb0a820eca091eca28520ec9984eba38c000000000000000081525060036000600360ff1681526020019081526020016000209080519060200190620002f992919062000300565b5062000415565b8280546200030e90620003df565b90600052602060002090601f0160209004810192826200033257600085556200037e565b82601f106200034d57805160ff19168380011785556200037e565b828001600101855582156200037e579182015b828111156200037d57825182559160200191906001019062000360565b5b5090506200038d919062000391565b5090565b5b80821115620003ac57600081600090555060010162000392565b5090565b7f4e487b7100000000000000000000000000000000000000000000000000000000600052602260045260246000fd5b60006002820490506001821680620003f857607f821691505b602082108114156200040f576200040e620003b0565b5b50919050565b610fb780620004256000396000f3fe608060405234801561001057600080fd5b506004361061007f576000357c01000000000000000000000000000000000000000000000000000000009004806320694db01461008457806334becfb4146100b457806336145996146100e457806338a7543e14610114578063877b9a6714610144578063ccdad14b14610174575b600080fd5b61009e60048036038101906100999190610ae0565b6101a4565b6040516100ab9190610b28565b60405180910390f35b6100ce60048036038101906100c99190610ae0565b6102f2565b6040516100db9190610b28565b60405180910390f35b6100fe60048036038101906100f99190610be1565b610441565b60405161010b9190610b28565b60405180910390f35b61012e60048036038101906101299190610ae0565b6105fa565b60405161013b9190610b28565b60405180910390f35b61015e60048036038101906101599190610ae0565b61061a565b60405161016b9190610b28565b60405180910390f35b61018e60048036038101906101899190610ae0565b610670565b60405161019b9190610d9f565b60405180910390f35b60003373ffffffffffffffffffffffffffffffffffffffff1660008054906101000a900473ffffffffffffffffffffffffffffffffffffffff1673ffffffffffffffffffffffffffffffffffffffff16146101fe57600080fd5b60018060008473ffffffffffffffffffffffffffffffffffffffff1673ffffffffffffffffffffffffffffffffffffffff16815260200190815260200160002060006101000a81548160ff02191690831515021790555060011515600160008473ffffffffffffffffffffffffffffffffffffffff1673ffffffffffffffffffffffffffffffffffffffff16815260200190815260200160002060009054906101000a900460ff161515146102b257600080fd5b7f27aa0506e4da65b95bd4f61c697076f8c7dcb69b2c0937d11efa9ceaa3bf5a95826040516102e19190610dd0565b60405180910390a160019050919050565b60003373ffffffffffffffffffffffffffffffffffffffff1660008054906101000a900473ffffffffffffffffffffffffffffffffffffffff1673ffffffffffffffffffffffffffffffffffffffff161461034c57600080fd5b6000600160008473ffffffffffffffffffffffffffffffffffffffff1673ffffffffffffffffffffffffffffffffffffffff16815260200190815260200160002060006101000a81548160ff02191690831515021790555060001515600160008473ffffffffffffffffffffffffffffffffffffffff1673ffffffffffffffffffffffffffffffffffffffff16815260200190815260200160002060009054906101000a900460ff1615151461040157600080fd5b7fee5d7d94405e51eec1bd7f59c36572787d25afb6c85e3a897bb782f08aac7d44826040516104309190610dd0565b60405180910390a160019050919050565b6000600160003373ffffffffffffffffffffffffffffffffffffffff1673ffffffffffffffffffffffffffffffffffffffff16815260200190815260200160002060009054906101000a900460ff1661049957600080fd5b60008460ff16116104e2577f448e45766fcba985141991ba16b66305eaa29bf78d329fa9163d2fc08ed248bb6040516104d190610e6e565b60405180910390a1600090506105f1565b7f1c4c598e5264e869c06ce519b3963516d87391d3a0f526877400496ff631ffac60405161050f90610f00565b60405180910390a16000600460008873ffffffffffffffffffffffffffffffffffffffff1673ffffffffffffffffffffffffffffffffffffffff168152602001908152602001600020905060018160000181905550600260008760ff1660ff1681526020019081526020016000208160010190805461058d90610f4f565b610598929190610919565b50600360008660ff1660ff168152602001908152602001600020816002019080546105c290610f4f565b6105cd929190610919565b5042816003018190555083838260040191906105ea9291906109a6565b5060019150505b95945050505050565b60016020528060005260406000206000915054906101000a900460ff1681565b6000600160008373ffffffffffffffffffffffffffffffffffffffff1673ffffffffffffffffffffffffffffffffffffffff16815260200190815260200160002060009054906101000a900460ff169050919050565b610678610a2c565b6000600460008473ffffffffffffffffffffffffffffffffffffffff1673ffffffffffffffffffffffffffffffffffffffff1681526020019081526020016000206000015414156106fe576040517f08c379a00000000000000000000000000000000000000000000000000000000081526004016106f590610e6e565b60405180910390fd5b600460008373ffffffffffffffffffffffffffffffffffffffff1673ffffffffffffffffffffffffffffffffffffffff1681526020019081526020016000206040518060a00160405290816000820154815260200160018201805461076290610f4f565b80601f016020809104026020016040519081016040528092919081815260200182805461078e90610f4f565b80156107db5780601f106107b0576101008083540402835291602001916107db565b820191906000526020600020905b8154815290600101906020018083116107be57829003601f168201915b505050505081526020016002820180546107f490610f4f565b80601f016020809104026020016040519081016040528092919081815260200182805461082090610f4f565b801561086d5780601f106108425761010080835404028352916020019161086d565b820191906000526020600020905b81548152906001019060200180831161085057829003601f168201915b505050505081526020016003820154815260200160048201805461089090610f4f565b80601f01602080910402602001604051908101604052809291908181526020018280546108bc90610f4f565b80156109095780601f106108de57610100808354040283529160200191610909565b820191906000526020600020905b8154815290600101906020018083116108ec57829003601f168201915b5050505050815250509050919050565b82805461092590610f4f565b90600052602060002090601f0160209004810192826109475760008555610995565b82601f106109585780548555610995565b8280016001018555821561099557600052602060002091601f016020900482015b82811115610994578254825591600101919060010190610979565b5b5090506109a29190610a5b565b5090565b8280546109b290610f4f565b90600052602060002090601f0160209004810192826109d45760008555610a1b565b82601f106109ed57803560ff1916838001178555610a1b565b82800160010185558215610a1b579182015b82811115610a1a5782358255916020019190600101906109ff565b5b509050610a289190610a5b565b5090565b6040518060a0016040528060008152602001606081526020016060815260200160008152602001606081525090565b5b80821115610a74576000816000905550600101610a5c565b5090565b600080fd5b600080fd5b600073ffffffffffffffffffffffffffffffffffffffff82169050919050565b6000610aad82610a82565b9050919050565b610abd81610aa2565b8114610ac857600080fd5b50565b600081359050610ada81610ab4565b92915050565b600060208284031215610af657610af5610a78565b5b6000610b0484828501610acb565b91505092915050565b60008115159050919050565b610b2281610b0d565b82525050565b6000602082019050610b3d6000830184610b19565b92915050565b600060ff82169050919050565b610b5981610b43565b8114610b6457600080fd5b50565b600081359050610b7681610b50565b92915050565b600080fd5b600080fd5b600080fd5b60008083601f840112610ba157610ba0610b7c565b5b8235905067ffffffffffffffff811115610bbe57610bbd610b81565b5b602083019150836001820283011115610bda57610bd9610b86565b5b9250929050565b600080600080600060808688031215610bfd57610bfc610a78565b5b6000610c0b88828901610acb565b9550506020610c1c88828901610b67565b9450506040610c2d88828901610b67565b935050606086013567ffffffffffffffff811115610c4e57610c4d610a7d565b5b610c5a88828901610b8b565b92509250509295509295909350565b6000819050919050565b610c7c81610c69565b82525050565b600081519050919050565b600082825260208201905092915050565b60005b83811015610cbc578082015181840152602081019050610ca1565b83811115610ccb576000848401525b50505050565b6000601f19601f8301169050919050565b6000610ced82610c82565b610cf78185610c8d565b9350610d07818560208601610c9e565b610d1081610cd1565b840191505092915050565b600060a083016000830151610d336000860182610c73565b5060208301518482036020860152610d4b8282610ce2565b91505060408301518482036040860152610d658282610ce2565b9150506060830151610d7a6060860182610c73565b5060808301518482036080860152610d928282610ce2565b9150508091505092915050565b60006020820190508181036000830152610db98184610d1b565b905092915050565b610dca81610aa2565b82525050565b6000602082019050610de56000830184610dc1565b92915050565b600082825260208201905092915050565b7fe29d8cebb09ceab88920eab080eb8aa5ed959c20eca69debaa85ec849ceab08060008201527f20ec9786ec8ab5eb8b88eb8ba4e29d8c00000000000000000000000000000000602082015250565b6000610e58603083610deb565b9150610e6382610dfc565b604082019050919050565b60006020820190508181036000830152610e8781610e4b565b9050919050565b7fe29c85eca69debaa85ec849ceab08020ebb09ceab889eb9098ec9788ec8ab5eb60008201527f8b88eb8ba4e29c85000000000000000000000000000000000000000000000000602082015250565b6000610eea602883610deb565b9150610ef582610e8e565b604082019050919050565b60006020820190508181036000830152610f1981610edd565b9050919050565b7f4e487b7100000000000000000000000000000000000000000000000000000000600052602260045260246000fd5b60006002820490506001821680610f6757607f821691505b60208210811415610f7b57610f7a610f20565b5b5091905056fea26469706673582212208afd5cb1f6c5aac870a98586836bc7f8eaf3935889edf9355d9a2a508799c7b664736f6c634300080a0033",
  "immutableReferences": {},
  "source": "// SPDX-License-Identifier: GPL-3.0\r\n\r\npragma solidity 0.8.10; \r\nabstract contract NationManage{\r\n    address private nation;\r\n\r\n    constructor(){\r\n        nation = msg.sender;\r\n    }\r\n    \r\n    modifier onlyNation{\r\n        require(nation == msg.sender);\r\n        _;\r\n    }\r\n}\r\n\r\nabstract contract IssuerManage is NationManage{ // onlyNation   is  \r\n    mapping(address => bool) public issuers;\r\n\r\n    event AddIssuer(address _addr);\r\n    event DelIssuer(address _addr);\r\n\r\n    constructor(){\r\n        issuers[msg.sender] = true;\r\n    }\r\n\r\n    modifier onlyIssuer{\r\n        require(issuers[msg.sender]);\r\n        _;\r\n    }\r\n\r\n\r\n    // onlyNation:     \r\n    //     \r\n    function addIssuer(address _addr) onlyNation public returns (bool){\r\n        issuers[_addr] = true;\r\n         require(issuers[_addr] == true); //   \r\n        emit AddIssuer(_addr);\r\n        return true;\r\n    }\r\n\r\n    //        \r\n    function delIssuer(address _addr) onlyNation public returns (bool){\r\n        issuers[_addr] = false;\r\n        require(issuers[_addr] == false); //   \r\n        emit DelIssuer(_addr);\r\n        return true;\r\n    }\r\n\r\n    function isIssuer(address _addr) public view returns (bool){\r\n        return issuers[_addr];\r\n    }\r\n\r\n}\r\n\r\ncontract VaccineCredential is IssuerManage{\r\n    mapping(uint8 => string) private companyArr; // eg. , , AZ\r\n    mapping(uint8 => string) private degreeArr;\r\n    event SuccessCredential(string);\r\n    event FaultCredential(string);\r\n\r\n    // :  \r\n    // :   \r\n    struct Credential{\r\n        uint id;\r\n        string company; //  : , , AZ\r\n        string degree; //  : 1, 2, 3\r\n        uint createdDate; //  \r\n        string value; // credentail   \r\n    }\r\n    mapping(address => Credential) private credentials;\r\n\r\n    constructor(){\r\n        companyArr[0] = unicode\"\";\r\n        companyArr[1] = unicode\"\";\r\n        companyArr[2] = unicode\"AZ\";\r\n\r\n        degreeArr[1] = unicode\"1  \";\r\n        degreeArr[2] = unicode\"2  \";\r\n        degreeArr[3] = unicode\"3  \";\r\n    }\r\n\r\n    // onlyIssuer:   claim  \r\n    function claimCredential(address _requester, uint8 _companyEnum, uint8 _degreeEnum, string calldata _value) onlyIssuer public returns (bool){\r\n        if(_degreeEnum <= 0){\r\n            emit FaultCredential(unicode\"   \");\r\n            return false;\r\n        }\r\n        emit SuccessCredential(unicode\" \");\r\n        Credential storage credential = credentials[_requester]; //  credential storage    \r\n        credential.id = 1;\r\n        credential.company = companyArr[_companyEnum];\r\n        credential.degree = degreeArr[_degreeEnum];\r\n        credential.createdDate = block.timestamp;\r\n        credential.value = _value;\r\n        return true;\r\n    }\r\n    function getCredential(address _requester) public view returns (Credential memory credential){\r\n        require(credentials[_requester].id != 0, unicode\"   \");\r\n        return credentials[_requester];\r\n    }\r\n}",
  "sourcePath": "C:\\blockchain\\vaccine\\contracts\\VaccineCredential.sol",
  "compiler": {
    "name": "solc",
    "version": "0.8.10+commit.fc410830.Emscripten.clang"
  },
  "schemaVersion": "3.4.3",
  "updatedAt": "2021-12-10T19:24:56.292Z",
  "networkType": "ethereum",
  "devdoc": {
    "kind": "dev",
    "methods": {},
    "version": 1
  },
  "userdoc": {
    "kind": "user",
    "methods": {},
    "version": 1
  }
}